{
  "contractName": "CarbonCreditSystem",
  "abi": [
    {
      "inputs": [
        {
          "internalType": "address",
          "name": "_token",
          "type": "address"
        },
        {
          "internalType": "address",
          "name": "_nft",
          "type": "address"
        }
      ],
      "stateMutability": "nonpayable",
      "type": "constructor"
    },
    {
      "anonymous": false,
      "inputs": [
        {
          "indexed": false,
          "internalType": "uint256",
          "name": "projectId",
          "type": "uint256"
        },
        {
          "indexed": false,
          "internalType": "uint256",
          "name": "credits",
          "type": "uint256"
        }
      ],
      "name": "CreditsMinted",
      "type": "event"
    },
    {
      "anonymous": false,
      "inputs": [
        {
          "indexed": false,
          "internalType": "uint256",
          "name": "projectId",
          "type": "uint256"
        }
      ],
      "name": "FinalVerified",
      "type": "event"
    },
    {
      "anonymous": false,
      "inputs": [
        {
          "indexed": false,
          "internalType": "uint256",
          "name": "projectId",
          "type": "uint256"
        }
      ],
      "name": "InitialVerified",
      "type": "event"
    },
    {
      "anonymous": false,
      "inputs": [
        {
          "indexed": true,
          "internalType": "address",
          "name": "previousOwner",
          "type": "address"
        },
        {
          "indexed": true,
          "internalType": "address",
          "name": "newOwner",
          "type": "address"
        }
      ],
      "name": "OwnershipTransferred",
      "type": "event"
    },
    {
      "anonymous": false,
      "inputs": [
        {
          "indexed": false,
          "internalType": "uint256",
          "name": "projectId",
          "type": "uint256"
        },
        {
          "indexed": false,
          "internalType": "address",
          "name": "ngo",
          "type": "address"
        }
      ],
      "name": "ProjectCreated",
      "type": "event"
    },
    {
      "inputs": [],
      "name": "carbonToken",
      "outputs": [
        {
          "internalType": "contract CarbonCreditToken",
          "name": "",
          "type": "address"
        }
      ],
      "stateMutability": "view",
      "type": "function",
      "constant": true
    },
    {
      "inputs": [],
      "name": "creditPrice",
      "outputs": [
        {
          "internalType": "uint256",
          "name": "",
          "type": "uint256"
        }
      ],
      "stateMutability": "view",
      "type": "function",
      "constant": true
    },
    {
      "inputs": [
        {
          "internalType": "address",
          "name": "",
          "type": "address"
        },
        {
          "internalType": "uint256",
          "name": "",
          "type": "uint256"
        }
      ],
      "name": "ngoProjects",
      "outputs": [
        {
          "internalType": "uint256",
          "name": "",
          "type": "uint256"
        }
      ],
      "stateMutability": "view",
      "type": "function",
      "constant": true
    },
    {
      "inputs": [],
      "name": "owner",
      "outputs": [
        {
          "internalType": "address",
          "name": "",
          "type": "address"
        }
      ],
      "stateMutability": "view",
      "type": "function",
      "constant": true
    },
    {
      "inputs": [],
      "name": "projectNFT",
      "outputs": [
        {
          "internalType": "contract CarbonProjectNFT",
          "name": "",
          "type": "address"
        }
      ],
      "stateMutability": "view",
      "type": "function",
      "constant": true
    },
    {
      "inputs": [
        {
          "internalType": "uint256",
          "name": "",
          "type": "uint256"
        }
      ],
      "name": "projectStatus",
      "outputs": [
        {
          "internalType": "enum CarbonCreditSystem.ProjectStatus",
          "name": "",
          "type": "uint8"
        }
      ],
      "stateMutability": "view",
      "type": "function",
      "constant": true
    },
    {
      "inputs": [
        {
          "internalType": "uint256",
          "name": "",
          "type": "uint256"
        }
      ],
      "name": "projects",
      "outputs": [
        {
          "internalType": "uint256",
          "name": "projectId",
          "type": "uint256"
        },
        {
          "internalType": "string",
          "name": "projectName",
          "type": "string"
        },
        {
          "internalType": "address",
          "name": "ngoDeveloper",
          "type": "address"
        },
        {
          "internalType": "uint256",
          "name": "carbonAmount",
          "type": "uint256"
        },
        {
          "internalType": "uint256",
          "name": "creditsIssued",
          "type": "uint256"
        },
        {
          "internalType": "string",
          "name": "ipfsHashInitial",
          "type": "string"
        },
        {
          "internalType": "string",
          "name": "ipfsHashFinal",
          "type": "string"
        },
        {
          "internalType": "address",
          "name": "verifiedByInitial",
          "type": "address"
        },
        {
          "internalType": "uint256",
          "name": "verifiedAtInitial",
          "type": "uint256"
        },
        {
          "internalType": "address",
          "name": "verifiedByFinal",
          "type": "address"
        },
        {
          "internalType": "uint256",
          "name": "verifiedAtFinal",
          "type": "uint256"
        },
        {
          "internalType": "uint256",
          "name": "nftTokenId",
          "type": "uint256"
        }
      ],
      "stateMutability": "view",
      "type": "function",
      "constant": true
    },
    {
      "inputs": [],
      "name": "renounceOwnership",
      "outputs": [],
      "stateMutability": "nonpayable",
      "type": "function"
    },
    {
      "inputs": [
        {
          "internalType": "address",
          "name": "newOwner",
          "type": "address"
        }
      ],
      "name": "transferOwnership",
      "outputs": [],
      "stateMutability": "nonpayable",
      "type": "function"
    },
    {
      "inputs": [
        {
          "internalType": "uint256",
          "name": "_projectId",
          "type": "uint256"
        },
        {
          "internalType": "string",
          "name": "_projectName",
          "type": "string"
        },
        {
          "internalType": "address",
          "name": "_ngoDeveloper",
          "type": "address"
        },
        {
          "internalType": "uint256",
          "name": "_carbonAmount",
          "type": "uint256"
        },
        {
          "internalType": "string",
          "name": "_ipfsHash",
          "type": "string"
        }
      ],
      "name": "createProject",
      "outputs": [],
      "stateMutability": "nonpayable",
      "type": "function"
    },
    {
      "inputs": [
        {
          "internalType": "uint256",
          "name": "_projectId",
          "type": "uint256"
        }
      ],
      "name": "verifyInitial",
      "outputs": [],
      "stateMutability": "nonpayable",
      "type": "function"
    },
    {
      "inputs": [
        {
          "internalType": "uint256",
          "name": "_projectId",
          "type": "uint256"
        }
      ],
      "name": "verifyFinalAndMint",
      "outputs": [],
      "stateMutability": "nonpayable",
      "type": "function"
    },
    {
      "inputs": [
        {
          "internalType": "uint256",
          "name": "amount",
          "type": "uint256"
        }
      ],
      "name": "purchaseCredits",
      "outputs": [],
      "stateMutability": "payable",
      "type": "function",
      "payable": true
    },
    {
      "inputs": [
        {
          "internalType": "uint256",
          "name": "price",
          "type": "uint256"
        }
      ],
      "name": "setCreditPrice",
      "outputs": [],
      "stateMutability": "nonpayable",
      "type": "function"
    },
    {
      "inputs": [],
      "name": "withdraw",
      "outputs": [],
      "stateMutability": "nonpayable",
      "type": "function"
    }
  ],
  "bytecode": "0x6080346100d257601f6110ac38819003918201601f19168301916001600160401b038311848410176100d75780849260409485528339810103126100d257610052602061004b836100ed565b92016100ed565b60008054336001600160a01b0319808316821784556040519590946001600160a01b03949093859391908416907f8be0079c531659141344cd1fd0a4f28419497f9722a3daafe3b4186f6b6457e09080a36001805566038d7ea4c680006004551683600254161760025516906003541617600355610faa90816101028239f35b600080fd5b634e487b7160e01b600052604160045260246000fd5b51906001600160a01b03821682036100d25756fe6040608081526004908136101561001557600080fd5b600091823560e01c8062c18bc614610ae7578063107046bd146109f057806316d857b5146108fb57806329734bce146108a55780633ccfd60b1461085657806350ac58921461080c578063715018a6146107b257806382a71ef2146107895780638da5cb5b1461076157806396ad030f146103b4578063a2fd69171461038b578063ad17a0b314610369578063bef101fb146101ac578063ca6358cd1461018f5763f2fde38b146100c557600080fd5b3461018b57602036600319011261018b576100de610e81565b906100e7610f1c565b6001600160a01b03918216928315610139575050600054826001600160601b0360a01b821617600055167f8be0079c531659141344cd1fd0a4f28419497f9722a3daafe3b4186f6b6457e0600080a380f35b906020608492519162461bcd60e51b8352820152602660248201527f4f776e61626c653a206e6577206f776e657220697320746865207a65726f206160448201526564647265737360d01b6064820152fd5b8280fd5b503461018b578260031936011261018b5760209250549051908152f35b5091906020908160031936011261018b57833560026001541461032657600260015580156102f257845480820290828204036102dd5734106102a35760018060a01b0360025416670de0b6b3a76400008083029283040361029057825163a9059cbb60e01b815233968101968752602087019290925293949093839185919082908890829060400103925af1908115610287575061024d575b826001805580f35b81813d8311610280575b6102618183610d63565b8101031261027c575180151503610279573880610245565b80fd5b5080fd5b503d610257565b513d85823e3d90fd5b634e487b7160e01b855260118652602485fd5b815162461bcd60e51b81528086018490526014602482015273125b9cdd59999a58da595b9d081c185e5b595b9d60621b6044820152606490fd5b601186634e487b7160e01b6000525260246000fd5b815162461bcd60e51b8152808601849052600e60248201526d125b9d985b1a5908185b5bdd5b9d60921b6044820152606490fd5b815162461bcd60e51b8152808601849052601f60248201527f5265656e7472616e637947756172643a207265656e7472616e742063616c6c006044820152606490fd5b83823461027c57602036600319011261027c57610384610f1c565b8035905580f35b50503461027c578160031936011261027c5760035490516001600160a01b039091168152602090f35b5091903461027c5760a036600319011261027c57823567ffffffffffffffff60243581811161075d576103ea9036908701610ec5565b6044356001600160a01b03811692919083900361075857608435828111610754576104189036908901610ec5565b84875260209260058452868820546107185785885260058452868820928684556001938481018251848111610705576104518254610d29565b601f81116106be575b50878c601f831160011461065d579060059583610652575b5050600019600383901b1c191690871b1790555b60028101876001600160601b0360a01b82541617905560643560038201550191805191821161063f5781906104bb8454610d29565b601f81116105ee575b508590601f831160011461058f578a92610584575b5050600019600383901b1c191690831b1790555b83865260068252848620805460ff191690558286526007825284862080549168010000000000000000831015610571577f63c92f9505d420bff631cb9df33be952bdc11e2118da36a850b43e6bcc4ce4de97985090829161055093018155610e97565b81549060031b9085821b91600019901b19161790558351928352820152a180f35b634e487b7160e01b885260418952602488fd5b0151905038806104d9565b848b52868b208694509190601f1984168c5b898282106105d857505084116105bf575b505050811b0190556104ed565b015160001960f88460031b161c191690553880806105b2565b83850151865589979095019493840193016105a1565b909150838a52858a20601f840160051c810191878510610635575b84939291601f88920160051c01915b8281106106265750506104c4565b60008155859450879101610618565b9091508190610609565b634e487b7160e01b895260418a52602489fd5b015190503880610472565b889291601f1983168583528b8320925b8c8282106106a857505096836005981061068f575b505050811b019055610486565b015160001960f88460031b161c19169055388080610682565b838a015185558c9690940193928301920161066d565b828d52888d20601f830160051c8101918a84106106fb575b601f0160051c019088905b8281106106ef57505061045a565b600081550188906106e1565b90915081906106d6565b634e487b7160e01b8c5260418d5260248cfd5b865162461bcd60e51b8152808a01859052601660248201527550726f6a65637420616c72656164792065786973747360501b6044820152606490fd5b8680fd5b600080fd5b8480fd5b50503461027c578160031936011261027c57905490516001600160a01b039091168152602090f35b50503461027c578160031936011261027c5760025490516001600160a01b039091168152602090f35b83346102795780600319360112610279576107cb610f1c565b600080546001600160a01b0319811682556001600160a01b03167f8be0079c531659141344cd1fd0a4f28419497f9722a3daafe3b4186f6b6457e08280a380f35b5091903461027c57602036600319011261027c5782358252600660205260ff81832054169051918382101561084357602083838152f35b634e487b7160e01b815260218452602490fd5b50503461027c578160031936011261027c57610870610f1c565b8180808060018060a01b03815416479082821561089c575bf115610892575080f35b51903d90823e3d90fd5b506108fc610888565b50503461027c578060031936011261027c576108bf610e81565b6001600160a01b0316825260076020528082208054602435939084101561027957506020926108ed91610e97565b91905490519160031b1c8152f35b5082903461027c576020908160031936011261018b5780359061091c610f1c565b8184526006835260ff8585205416818110156109dd5761099a57508293817fe1e0c1c6f4cf9111b38461cb66de554d6f2e76fa8da23ffa25b0be1461bc400f94526005835280852060078101336001600160601b0360a01b82541617905560084291015560068352808520600160ff1982541617905551908152a180f35b845162461bcd60e51b8152908101839052601c60248201527f50726f6a656374206e6f7420696e2043524541544544207374617465000000006044820152606490fd5b634e487b7160e01b855260218252602485fd5b508234610279576020366003190112610279578290823581526005602052209182549160018401610a2090610d9b565b6002850154600386015492860154919591936001600160a01b03918216939190610a4c60058501610d9b565b610a5860068601610d9b565b91836007870154169760088701549460098801541695600a88015497600b01549883519c8d9c8d528c6101806020819201528d01610a9591610e41565b938c015260608b015260808a015288810360a08a0152610ab491610e41565b87810360c0890152610ac591610e41565b9460e08701526101008601526101208501526101408401526101608301520390f35b5091903461027c5760208060031936011261018b57833590610b07610f1c565b8184526006815260ff838520541685811015610d1657600103610cd457818452600581528284206009810180546001600160a01b0319163317905542600a82015560035460028201805486516375223fc960e11b81526001600160a01b03918216818b0152909493928490829060249082908c908a165af1908115610cca578891610c9d575b50600b830155600382015493670de0b6b3a764000094858102958187041490151715610c8a578060025416915416813b15610c86578651639bae874760e01b81526001600160a01b03909116818a01908152602081018690529091889183919082908490829060400103925af18015610c7c57610c4e575b507f83a581b548e565c38d88b98680dc3b5e20cbdaae97a0b0c1ecf6d500dbb13bff95968391015582865260068152838620600360ff198254161790558351928352820152a180f35b67ffffffffffffffff8197929711610c695785529482610c05565b634e487b7160e01b825260418852602482fd5b86513d89823e3d90fd5b8780fd5b634e487b7160e01b885260118952602488fd5b90508381813d8311610cc3575b610cb48183610d63565b81010312610c86575138610b8d565b503d610caa565b87513d8a823e3d90fd5b8460649184519162461bcd60e51b8352820152601d60248201527f496e697469616c20766572696669636174696f6e2072657175697265640000006044820152fd5b634e487b7160e01b855260218652602485fd5b90600182811c92168015610d59575b6020831014610d4357565b634e487b7160e01b600052602260045260246000fd5b91607f1691610d38565b90601f8019910116810190811067ffffffffffffffff821117610d8557604052565b634e487b7160e01b600052604160045260246000fd5b9060405191826000825492610daf84610d29565b908184526001948581169081600014610e1e5750600114610ddb575b5050610dd992500383610d63565b565b9093915060005260209081600020936000915b818310610e06575050610dd993508201013880610dcb565b85548884018501529485019487945091830191610dee565b915050610dd994506020925060ff191682840152151560051b8201013880610dcb565b919082519283825260005b848110610e6d575050826000602080949584010152601f8019910116010190565b602081830181015184830182015201610e4c565b600435906001600160a01b038216820361075857565b8054821015610eaf5760005260206000200190600090565b634e487b7160e01b600052603260045260246000fd5b81601f820112156107585780359067ffffffffffffffff8211610d855760405192610efa601f8401601f191660200185610d63565b8284526020838301011161075857816000926020809301838601378301015290565b6000546001600160a01b03163303610f3057565b606460405162461bcd60e51b815260206004820152602060248201527f4f776e61626c653a2063616c6c6572206973206e6f7420746865206f776e65726044820152fdfea2646970667358221220d55ae6e39a18caf58e975b89920f63d61f327aac8ae68162d96eab27348f925a64736f6c63430008130033",
  "immutableReferences": {},
  "source": "// SPDX-License-Identifier: MIT\r\npragma solidity ^0.8.19;\r\n\r\nimport \"./CarbonCreditToken.sol\";\r\nimport \"./CarbonProjectNFT.sol\";\r\nimport \"@openzeppelin/contracts/access/Ownable.sol\";\r\nimport \"@openzeppelin/contracts/security/ReentrancyGuard.sol\";\r\n\r\ncontract CarbonCreditSystem is Ownable, ReentrancyGuard {\r\n\r\n    CarbonCreditToken public carbonToken;\r\n    CarbonProjectNFT public projectNFT;\r\n\r\n    uint256 public creditPrice = 0.001 ether;\r\n\r\n    enum ProjectStatus {\r\n        CREATED,\r\n        INITIAL_VERIFIED,\r\n        FINAL_VERIFIED,\r\n        CREDITS_ISSUED\r\n    }\r\n\r\n    struct Project {\r\n\r\n        uint256 projectId;\r\n        string projectName;\r\n        address ngoDeveloper;\r\n\r\n        uint256 carbonAmount;\r\n        uint256 creditsIssued;\r\n\r\n        string ipfsHashInitial;\r\n        string ipfsHashFinal;\r\n\r\n        address verifiedByInitial;\r\n        uint256 verifiedAtInitial;\r\n\r\n        address verifiedByFinal;\r\n        uint256 verifiedAtFinal;\r\n\r\n        uint256 nftTokenId;\r\n    }\r\n\r\n    mapping(uint256 => Project) public projects;\r\n    mapping(uint256 => ProjectStatus) public projectStatus;\r\n    mapping(address => uint256[]) public ngoProjects;\r\n\r\n    event ProjectCreated(uint256 projectId, address ngo);\r\n    event InitialVerified(uint256 projectId);\r\n    event FinalVerified(uint256 projectId);\r\n    event CreditsMinted(uint256 projectId, uint256 credits);\r\n\r\n    constructor(address _token, address _nft) {\r\n\r\n        carbonToken = CarbonCreditToken(_token);\r\n        projectNFT = CarbonProjectNFT(_nft);\r\n    }\r\n\r\n    function createProject(\r\n        uint256 _projectId,\r\n        string memory _projectName,\r\n        address _ngoDeveloper,\r\n        uint256 _carbonAmount,\r\n        string memory _ipfsHash\r\n    ) public {\r\n\r\n        require(projects[_projectId].projectId == 0, \"Project already exists\");\r\n\r\n        Project storage project = projects[_projectId];\r\n\r\n        project.projectId = _projectId;\r\n        project.projectName = _projectName;\r\n        project.ngoDeveloper = _ngoDeveloper;\r\n        project.carbonAmount = _carbonAmount;\r\n        project.ipfsHashInitial = _ipfsHash;\r\n\r\n        projectStatus[_projectId] = ProjectStatus.CREATED;\r\n\r\n        ngoProjects[_ngoDeveloper].push(_projectId);\r\n\r\n        emit ProjectCreated(_projectId, _ngoDeveloper);\r\n    }\r\n\r\n    function verifyInitial(uint256 _projectId) public onlyOwner {\r\n\r\n        require(projectStatus[_projectId] == ProjectStatus.CREATED, \"Project not in CREATED state\");\r\n\r\n        projects[_projectId].verifiedByInitial = msg.sender;\r\n        projects[_projectId].verifiedAtInitial = block.timestamp;\r\n\r\n        projectStatus[_projectId] = ProjectStatus.INITIAL_VERIFIED;\r\n\r\n        emit InitialVerified(_projectId);\r\n    }\r\n\r\n    function verifyFinalAndMint(uint256 _projectId) public onlyOwner {\r\n\r\n        require(projectStatus[_projectId] == ProjectStatus.INITIAL_VERIFIED, \"Initial verification required\");\r\n\r\n        Project storage project = projects[_projectId];\r\n\r\n        project.verifiedByFinal = msg.sender;\r\n        project.verifiedAtFinal = block.timestamp;\r\n\r\n        uint256 nftId = projectNFT.mintProjectNFT(project.ngoDeveloper);\r\n\r\n        project.nftTokenId = nftId;\r\n\r\n        uint256 credits = project.carbonAmount * 10**18;\r\n\r\n        carbonToken.mintCredits(project.ngoDeveloper, credits);\r\n\r\n        project.creditsIssued = credits;\r\n\r\n        projectStatus[_projectId] = ProjectStatus.CREDITS_ISSUED;\r\n\r\n        emit CreditsMinted(_projectId, credits);\r\n    }\r\n\r\n    function purchaseCredits(uint256 amount) public payable nonReentrant {\r\n\r\n        require(amount > 0, \"Invalid amount\");\r\n        require(msg.value >= amount * creditPrice, \"Insufficient payment\");\r\n\r\n        carbonToken.transfer(msg.sender, amount * 10**18);\r\n    }\r\n\r\n    function setCreditPrice(uint256 price) public onlyOwner {\r\n\r\n        creditPrice = price;\r\n    }\r\n\r\n    function withdraw() public onlyOwner {\r\n\r\n        payable(owner()).transfer(address(this).balance);\r\n    }\r\n}",
  "sourcePath": "D:\\MINI-3Copy\\Truffle\\contracts\\CarbonCreditSystem.sol",
  "compiler": {
    "name": "solc",
    "version": "0.8.19+commit.7dd6d404.Emscripten.clang"
  },
  "schemaVersion": "3.4.16",
  "updatedAt": "2026-03-10T15:21:19.255Z",
  "networkType": "ethereum",
  "devdoc": {
    "kind": "dev",
    "methods": {
      "owner()": {
        "details": "Returns the address of the current owner."
      },
      "renounceOwnership()": {
        "details": "Leaves the contract without owner. It will not be possible to call `onlyOwner` functions. Can only be called by the current owner. NOTE: Renouncing ownership will leave the contract without an owner, thereby disabling any functionality that is only available to the owner."
      },
      "transferOwnership(address)": {
        "details": "Transfers ownership of the contract to a new account (`newOwner`). Can only be called by the current owner."
      }
    },
    "version": 1
  },
  "userdoc": {
    "kind": "user",
    "methods": {},
    "version": 1
  }
}